:020000040800F2
:10000000A007002099010008AB1F00080F1E000880
:10001000A91F0008D308000869220008000000009A
:10002000000000000000000000000000AF1F0008FA
:10003000E108000800000000AD1F0008B11F000823
:10004000B3010008B3010008B3010008B3010008C0
:10005000B3010008B3010008B3010008B3010008B0
:10006000B3010008B3010008B3010008B3010008A0
:10007000B3010008B3010008B3010008B301000890
:10008000B3010008B3010008B3010008B301000880
:10009000B3010008D5080008B3010008B301000847
:1000A000B3010008B3010008B3010008B301000860
:1000B000B3010008B3010008B3010008B301000850
:1000C000B3010008B3010008B3010008B301000840
:1000D000B30100085D220008B3010008B301000865
:1000E000B3010008B3010008B301000800F002F8F2
:1000F00000F043F80AA090E8000C82448344AAF17F
:100100000107DA4501D100F038F8AFF2090EBAE87C
:100110000F0013F0010F18BFFB1A43F0010318473B
:100120001422000034220000103A24BF78C878C19D
:10013000FAD8520724BF30C830C144BF04680C60ED
:10014000704700000023002400250026103A28BF35
:1001500078C1FBD8520728BF30C148BF0B60704739
:100160001FB500F06BFB04000020002102F0C0F876
:10017000401C60601FBD10B510BD00F023FB114690
:10018000FFF7EEFF02F082F800F04AFB03B4FFF73E
:10019000F2FF03BC00F096FB09488047094800477E
:1001A000FEE7FEE7FEE7FEE7FEE7FEE7FEE7FEE727
:1001B000FEE7FEE704480549054A064B7047000084
:1001C00013200008ED000008A0010020A007002077
:1001D000A0030020A00300200FB400B58DB010A92B
:1001E000099000910B904FF0FF300A9000200C9086
:1001F000064878440690064878446A4607900F9966
:1002000009A800F0EBF80DB05DF814FB0702000040
:100210001F0200002DE9FF5F1D464FF0FF3B914696
:100220004FF000085F46D5E90146A96901987F1C97
:100230008847296A824688470028F6D1BAF1FF3FED
:100240000CD0002E24F4C06419DD600614D5BAF178
:100250002B0F09D0BAF12D0F0ED103E0584604B090
:10026000BDE8F09F44F48064A96901987F1C884729
:10027000761E8246002E02DDBAF1300F03D0B9F1AE
:10028000000F26D032E0A969761E01987F1C44F445
:1002900000748847002E824605DDBAF1780F06D03B
:1002A000BAF1580F03D0B9F1000F10D01EE0B9F128
:1002B000000F02D0B9F1100F18D1A969761E01986C
:1002C0007F1C24F4007488478246102002E0082036
:1002D00000E00A20814609E0A96908FB0908761EAA
:1002E00001987F1C44F4007488478246002E05DD87
:1002F0004946504600F05EF80028EDDAE9690198B9
:100300008847A00502D46FF00100A8E7E00725D1D7
:10031000600613D5600502D5C8F1000000E0404634
:1003200029680A1D2A600968220501D5087015E0B0
:10033000220701D5088011E008600FE02868011D40
:1003400029600068210502D580F8008006E02107B9
:1003500002D5A0F8008001E0C0F8008038467EE7B2
:100360004FF0000200B5134694469646203922BF4E
:10037000A0E80C50A0E80C50B1F12001BFF4F7AF99
:10038000090728BFA0E80C5048BF0CC05DF804EB7B
:10039000890028BF40F8042B08BF704748BF20F8E9
:1003A000022B11F0804F18BF00F8012B70477047E7
:1003B000704770473A2800D2303820F02002412A96
:1003C00001D3A2F13700884201D34FF0FF307047CC
:1003D000026811441378016018467047D1600549DE
:1003E0007944516104497944116200211161114637
:1003F00000F02EB8EDFFFFFF53000000426842B14D
:10040000016811F8013B23B1521EC0E900121846E1
:1004100070470121C160881E704742685AB1C368A5
:10042000016843B983688B4205D0491E521CC0E95C
:100430000012002070474FF0FF30704710B504469F
:1004400000F0E6F90068005D00F0010010BD00005A
:100450002DE9F34F4FF0000A0C4656468DB00120AF
:100460000C9001F10C000B9062690B9801219047F0
:10047000051E2DD0252D2CD0216A8847C0B1626978
:100480000B9801219047216A88470028F7D16269BB
:10049000411E0B98904700E0761CA1690D98884793
:1004A000216A88470028F7D1E1690D988847DBE782
:1004B000A1690D988847A842074601D1761CD3E769
:1004C000E1690D9888477F1C02D1BAF1000F6FD007
:1004D0006BE162690B9800273D46394690472A2810
:1004E00004D162690B98012190470125DFF8D08281
:1004F00062690B9801219047A0F130010A290AD2C4
:100500004745E5DC07EB870100EB4107303FDFD4CF
:1005100045F01005ECE7E90601D46FF000476C28C0
:100520000AD04C2814D0682815D06A280DD0742819
:100530001CD07A281AD01DE062690B9801219047DF
:100540006C2802D045F0040514E045F002050DE0EA
:1005500045F020050AE062690B9801219047682860
:1005600002D045F0080505E045F4006562690B9886
:1005700001219047C4E9015765283DD019DC58286E
:100580007AD00CDC452837D004DC252826D0412839
:100590009ED131E046282FD0472899D12CE05B2806
:1005A00077D0612828D063287CD0642823D15AE0F2
:1005B000F6E06F2848D008DC66281DD067281BD0DD
:1005C000692821D06E2816D127E0702845D07328DD
:1005D00068D0752847D078280DD14DE0A1690D98D5
:1005E0008847252805463FF469AFE1690D9888479B
:1005F0006D1C3FF46AAFD8E00D9923466A466FF050
:100600000100AFF30080C5E045F0400023464FF005
:1006100000026060A80736D43EE0E8077FF447AFE9
:100620002068011D21600068290501D506701BE7BF
:10063000290701D5068017E7A90703D5F117C0E9F7
:10064000006111E706600FE745F0400023464FF0D8
:1006500008026060A80716D41EE040F60E0125EAE5
:100660000100606016E045F0400023464FF00A02AA
:100670006060A80707D40FE045F040006060A8075D
:1006800008D5234610220D996FF00100AFF30080CA
:1006900080E007E0102223460D996FF00100FFF77C
:1006A000B9FD77E04FF0000963284F46C8464B4636
:1006B000CB4602D05B2806D038E0E80601D4012002
:1006C000A060012732E06269D4F80CB00B980121D8
:1006D00090475E2807D14FF0010949466269D4F876
:1006E0000CB00B989047216939B900210A4603AB39
:1006F00043F82120491C0829FADBD8B3216949B302
:1007000008F1010862690B98012190475D28F4D136
:10071000B9F1000F09D0002003A951F82020D243DD
:1007200041F82020401C0828F7DB03AB2069002893
:1007300020794FEA40701ED05B462246CDF80080FB
:10074000CDE901970D9900286FF0010020DAAFF391
:1007500000801FE0C11703AA00EBD1614B1121F00B
:100760001F0102EB8302411A1368012088400343F2
:100770001360C7E719E00D99224600286FF00100C9
:10078000009702DAAFF3008004E0AFF3008001E0ED
:10079000AFF3008000280ADA401C06D10C9820B183
:1007A0004FF0FF300FB0BDE8F08F5046FAE7E90791
:1007B00001D10AF1010A064400200C9054E6000021
:1007C000CCCCCC0C754600F035F8AE460500694639
:1007D000534620F00700854618B020B5FFF7EAFC25
:1007E000BDE820404FF000064FF000074FF0000832
:1007F0004FF0000B21F00701AC46ACE8C009ACE8B3
:10080000C009ACE8C009ACE8C0098D4670470000DB
:1008100010B500F013F8001D10BD00BFD51A000080
:1008200010B50446AFF300802046BDE81040FFF746
:10083000ADBC0000004870474001002000487047F0
:10084000600100204FF0013C50F8042B51F8043BAC
:100850009A4221D1A2EB0C03934313EACC1317D194
:1008600050F8042B51F8043B9A4215D1A2EB0C032B
:10087000934313EACC130BD150F8042B51F8043BEB
:100880009A4209D1A2EB0C03934313EACC13DBD0B9
:100890004FF00000704700BFD01A01BAB1FA81F1E1
:1008A00001F0180122FA01F0CB40C1F12001DBB2C6
:1008B000C0B2C01A2CFA01F3D11A914311EAC31144
:1008C000E6D1704701491820ABBEFEE726000200C2
:1008D0007047FEE7014800F067B9000044000020BF
:1008E000704790F82020012A07D0022A05D0416ADB
:1008F00041F48021416201207047006842690A4347
:10090000426100207047F0B590F820500468A46858
:10091000012D05D0022D03D0416A41F4802153E01E
:1009200014F0406F01D1E5004BD5C4F30164022CF3
:1009300003D9416A41F4000146E00125A5401D604C
:100940008D684FF4C0739DB1CE6835434E6845EA5B
:10095000C605066803EB0417F5514FF4C275076826
:1009600005EB04150E697E51097D012905D009E0CA
:100970000E88CD6845EA4655EBE701684E5946F4C6
:1009800080764E511179D2F805504FF4C67641EA7F
:100990000525016806EB04168D511178D2F8012067
:1009A0004FF4C47541EA0221026805EB0415515168
:1009B000006803EB0411425842F00102425000204B
:1009C000F0BD416A41F4001141620120F0BD000018
:1009D00010B590F820300268012B07D0022B05D00B
:1009E000416A41F480214162012010BDD2F8000229
:1009F00040F00100C2F80002087D00F01F03012052
:100A00009840D2F81C328343C2F81C32CB69B3B988
:100A1000D2F80C328343C2F80C328C894B6864F3F1
:100A20001F434C6902EBC404C4F840320C890B68C4
:100A300064F31F434C6902EBC404C4F84432CB692D
:100A4000012B16D1D2F80C320343C2F80C320C88B9
:100A50004B6864F31F434C6902EBC404C4F8403292
:100A60000C89CB6864F31F434C6902EBC404C4F8DF
:100A700044328B69002BD2F804320FD053EA0003C2
:100A8000C2F804320B69002BD2F8143208D00343A9
:100A9000C2F81432096A012904D008E08343EFE761
:100AA0008343F5E7D2F81C120143C2F81C12D2F8B6
:100AB000000220F00100C2F80002002010BD7047C3
:100AC00030B590F82040012C05D0022C03D0416AAB
:100AD00041F480215DE00468002955D02469A40711
:100AE00054D04FF4D874056804EB01142D5915F057
:100AF0000405956005682D594ED0ED0855600568D0
:100B00002C5904F00204D4604FF4DA74056804EB45
:100B100001142D5905F00F05156105682D59C5F310
:100B20000725956105682C59240C54614FF4DC723B
:100B3000046802EB0112A4581C700468A458240A2B
:100B40005C700468A458240C9C700468A258120EAF
:100B5000DA704FF4DE72046802EB0112A4581C71C3
:100B60000468A458240A5C710468A458240C9C717D
:100B70000468A258120EDA71006881B1016941F06F
:100B800020010161002030BDE468A8E7416A41F41A
:100B900000114162012030BD6D0D1560AFE7C168E5
:100BA00041F02001C160EDE72DE9F05F05460068E6
:100BB00000244669D0F804908768D0F80CB0D0F8CB
:100BC00010A0D0F81880F10748D0F90714D00121FF
:100BD0008160B80703D5284600F003FA0CE07807D7
:100BE00002D54FF4006407E0380702D54FF4805473
:100BF00002E0284600F0F4F9F80516D529684FF40C
:100C000080708860B80503D5284600F0ECF90CE048
:100C1000780502D544F4005407E0380502D544F4C1
:100C2000804402E0284600F0DDF9F80316D5296873
:100C30004FF480308860B80303D5284600F0D5F91A
:100C40000CE0780302D544F4004407E0380302D5F1
:100C500044F4803402E0284600F0C6F9300707D596
:100C60005FEACB6004D52968102044F40074C860A2
:100C700070074FF0080707D55FEA0B7004D52868A6
:100C8000C760284600F05AF9B00706D52868C06842
:100C9000800702D0284600F053F9700607D55FEAB6
:100CA000CA6004D52968102044F480640861B00645
:100CB00007D55FEA0A7004D528680761284600F066
:100CC0005FF9F00606D528680069800702D028463B
:100CD00000F057F9B00308D55FEAC96005D5296867
:100CE00010204860284600F04DF9F00307D55FEA70
:100CF000097004D528684760284600F077F9300469
:100D000046D55FEA497040D5F00504D55FEAC87062
:100D100001D044F00104B00504D55FEA887001D524
:100D200044F00204700504D55FEA487001D544F030
:100D30000404300529D518F0700F26D008F0700093
:100D4000402815D006DC102809D020280AD03028E9
:100D500016D10AE050280ED0602811D10EE044F0E0
:100D600008040DE044F010040AE044F0200407E019
:100D700044F0400404E044F0800401E044F4807452
:100D80002868816921F07001816129680420486028
:100D9000002C05D0686A204368622846FFF78FFE62
:100DA000BDE8F09F70B5040003D094F8200010B1A6
:100DB00004E0012070BD204600F082F82068016840
:100DC00021F00201016000F055FA0546052604E015
:100DD00000F050FA401B0A2811D8206840688007AC
:100DE000F6D42068016841F00101016000F042FA88
:100DF00005460BE000F03EFA401B0A2806D9606A5F
:100E000040F40030606284F82060D2E720684068D7
:100E1000C007EFD0207E0128206801683DD021F076
:100E200080010160607E01282068016838D021F0CF
:100E300040010160A07E01282068016833D021F0C4
:100E400020010160E07E0128206801682ED041F079
:100E500010010160207F01282068016829D021F05D
:100E600008010160607F01282068016824D021F01A
:100E700004010160D4E902010843D4E904121143DA
:100E800008436168491E08432168C8610020606208
:100E9000012084F82000002070BD41F08001C0E7EF
:100EA00041F04001C5E741F02001CAE721F01001FF
:100EB000CFE741F00801D4E741F00401D9E7000091
:100EC00010B586B000210091019102910391006854
:100ED000174988422AD11748C16941F00071C161A0
:100EE000C16901F000710491816941F004018161DF
:100EF0008069114C00F0040004904FF400600090F1
:100F00006946204600F0C0F8A0140090022001902D
:100F1000032003906946204600F0B6F800221146EF
:100F2000152000F013FA152000F002FA06B010BDEB
:100F300000640040001002400008014070470000BB
:100F400010B50D4B0D4A0021FFF7BAFD0B480A4AB8
:100F5000012100682C3A012807D0022807D0032875
:100F600007D0042800D1D16110BD116110BD5161BD
:100F700010BD916110BD00002C0000200C0100206C
:100F8000704770477047000070B5044690F8200025
:100F9000012804D0606A40F40020606218E002205A
:100FA00084F820002068016821F00101016000F050
:100FB00061F905460EE000BF00F05CF9401B0A280D
:100FC00008D9606A40F400306062052084F820008F
:100FD000012070BD20684068C007EDD1606270BD1F
:100FE0007047704770477047704770477047000000
:100FF00010B590F821100024022903D00421816348
:1010000001243DE001680A6822F00E020A600168CE
:101010000A6822F001020A601A4A0168914201D16D
:10102000012121E0174A1432914201D110211BE025
:10103000144A2832914201D1891515E0114A3C32F7
:10104000914201D189140FE00E4A5032914202D1EF
:101050004FF4803108E00B4A6432914202D14FF4E0
:10106000801101E04FF08071064A083A5160012179
:1010700080F82110002180F82010416B01B18847D1
:10108000204610BD080002402DE9F84FDFF8B89166
:10109000002409F1040A0AF1040B23460F270BF17F
:1010A000040EC9E00125A5402A40AA427DD1674E21
:1010B000D1F804C0ACEB0608B44532D014DCBCF166
:1010C000030F3AD009DCBCF1000F2AD0BCF1010FAC
:1010D0001CD0BCF1020F31D11DE0BCF1110F17D0B3
:1010E000BCF1120F2AD119E0B8F5881F19D006DC1F
:1010F000B8F5803F15D0B8F5801F1FD111E0B8F5C5
:10110000001F0ED0B8F5041F18D10AE0CB6815E017
:10111000CB681B1D12E0CB6808330FE0CB680C33A3
:101120000CE08B682BB1012B4FF0080303D0456115
:1011300004E0042302E0056100E00023FF2A01D857
:10114000064601E000F104064FEA840501D9A5F145
:101150002005D6F8008007FA05FC28EA0C0803FAF7
:1011600005F548EA0508C6F800804D68ED0062D52F
:10117000374DAE6946F00106AE61AD6924F0030655
:1011800005F001050095334D06EB050CDCF8085021
:10119000A607360F07FA06F825EA0805DFF8B88033
:1011A000404503D14FF0000817E044E0DFF8AC8081
:1011B000404502D14FF001080FE0DFF8A480404520
:1011C00002D14FF0020808E0DFF89880404502D1D4
:1011D0004FF0030801E04FF0040808FA06F848EA67
:1011E0000508CCF808804D68D9F80060ED034D463D
:1011F00001D5164300E096432E604D68DAF8006092
:10120000AD03554601D5164300E096432E604D6868
:10121000DBF80060ED025D4601D5164300E0964321
:101220002E604D68DEF80060AD02754601D51643AC
:1012300000E096432E60641C0D682A46E5407FF46A
:1012400031AFBDE8F88F000000040140000011102C
:10125000001002400000014000080140000C014065
:1012600000100140001401400AB1016170470904F7
:10127000FBE7000001488068704700003400002050
:101280000248816802781144816070473400002070
:10129000074810B5016841F010010160032000F01B
:1012A00075F8002000F006F800F024F8002010BDCA
:1012B0000020024070B50D4D04464FF47A71287835
:1012C000B1FBF0F00A490968B1FBF0F000F0ECFA6C
:1012D00048B9102C07D200222146501E00F036F8E3
:1012E00000206C6070BD012070BD00003400002043
:1012F000400000200C4808B5816941F0010181617E
:10130000816901F001010091C16941F08051C16121
:10131000C06900F0805000900448416821F0E0610D
:1013200041F00071416008BD001002400000014022
:10133000002809DB00F01F020121914040098000D4
:1013400000F1E020C0F8001170470000F0B40E4B2F
:101350001B680C46C3F30223C3F10705042D00D913
:101360000425191D072901D2002300E0DB1E0126F8
:1013700006FA05F1491E214099409E40761E16400E
:101380003143F0BC00F071BF0CED00E0064900F005
:10139000070208684FF6FF03184040EA0220034A9C
:1013A00010430860704700000CED00E00000FA05F3
:1013B0002DE9F0470F46050061D0434E306800F03C
:1013C0000700B84209D2306820F007003843306087
:1013D000306800F00700B84251D128683B4C8107C3
:1013E00012D5400703D5606840F4E060606028785B
:1013F000000703D5606840F4605060606068A968C9
:1014000020F0F000084360602878C00728D06868A2
:10141000012810D02168022810D0890700292EDA6F
:10142000616821F0030101436160FFF723FF8046FB
:1014300041F288390DE021688903EFE78901EDE782
:10144000FFF718FFA0EB0801494502D90320BDE8CA
:10145000F0876068696800F00C00B0EB810FEFD195
:10146000306800F00700B8420BD9306820F0070060
:1014700038433060306800F00700B84201D00120E6
:10148000E5E72878400705D56068E96820F4E06062
:10149000084360602878000706D56068296920F451
:1014A000605040EAC100606000F038F86168084AA6
:1014B000C1F30311515CC840064908600648006842
:1014C000FFF7F8FE0020C2E70020024000100240B3
:1014D0001C23000840000020380000200448054973
:1014E00000684968044AC1F30221515CC840704752
:1014F00040000020001002402C2300080448054949
:1015000000684968044AC1F3C221515CC840704771
:1015100040000020001002402C23000812A185B0DA
:101520000FC98DE80F0014A0144A00680490516898
:10153000134801F00C03042B10D0082B0ED1C1F37B
:101540008343C9031DF803000AD5516804AAC1F3F7
:101550004041515C0A4A5043B0FBF1F005B070477E
:1015600008494843FAE70000020304050607080992
:101570000A0B0C0D0E0F10100102000000100240AB
:1015800000127A0000093D002DE9F84F040070D0E8
:101590002078C04DC00749D06868C0F38100012899
:1015A00007D06868C0F38100022809D16868C003C9
:1015B00006D52868800339D560680028E7D035E073
:1015C0006068B0F5803F0BD010B1B0F5A02F11D0FE
:1015D000286820F480302860286820F4802002E009
:1015E000286840F480302860606890B1FFF742FEC0
:1015F00006460AE0286840F480202860F0E700BF33
:10160000FFF738FE801B642873D828688003F7D55D
:101610000CE0FFF72FFE064605E000BFFFF72AFEAD
:10162000801B6428F0D828688003F7D420789A4E6D
:1016300080074FF001094FF0000839D5686810F0B5
:101640000C0F07D06868C0F38100022809D16868D0
:10165000C00306D42868800714D52069012808D162
:1016600010E02069B0B1C6F80090FFF703FE07460E
:1016700005E00AE1FFF7FEFDC01B0228C4D8286878
:101680008007F7D52868616920F0F80040EAC100BA
:1016900028600DE0C6F80080FFF7ECFD074604E087
:1016A000FFF7E8FDC01B022823D828688007F7D47D
:1016B000207800072CD57948A169D9B1C0F80090ED
:1016C000FFF7D8FD074604E0FFF7D4FDC01B022852
:1016D0000FD8686A8007F7D571484FF4FA5100684F
:1016E000B0FBF1F0009000BF0098411E0091FAD2CB
:1016F0000EE080E0C0F80080FFF7BCFD074604E084
:10170000FFF7B8FDC01B022875D8686A8007F7D4B8
:101710002078400760D5E8690027C00008D4E86950
:1017200040F08050E861E869012700F080500090A7
:101730005C480168C90513D40168834641F480718F
:101740000160FFF797FD824606E000BFFFF792FDBC
:10175000A0EB0A0064284ED8DBF80000C005F5D5E0
:10176000E06801280AD008B1052813D0286A20F0C3
:1017700001002862286A20F0040002E0286A40F094
:1017800001002862E06841F2883B98B1FFF772FDE2
:1017900082460BE0286A40F004002862EEE700BFB2
:1017A000FFF768FDA0EB0A0159455AD8286A80075F
:1017B000F6D50CE0FFF75EFD824605E0FFF75AFD27
:1017C000A0EB0A0159454CD8286A8007F6D41FB10E
:1017D000E86920F08050E861E06988B36968C1F386
:1017E0008101022944D00228C6F8608004D0FFF7A6
:1017F00041FD044638E034E0FFF73CFD074604E0D5
:10180000FFF738FDC01B02282BD828688001F7D4C9
:10181000206AB0F5803F05D16868A16820F40030E7
:1018200008436860D4E908010843696821F4741129
:1018300008436860C6F86090FFF71CFD044606E0A8
:1018400025E000BFFFF716FD001B022809D8286815
:101850008001F7D51BE000BFFFF70CFD001B02283D
:1018600002D90320BDE8F88F28688001F4D40EE087
:101870000128F7D06868226A00F48031914204D1CF
:10188000616A00F47010884201D00120EAE700206C
:10189000E8E700000010024000004242800442429B
:1018A000400000200070004010B5401EB0F1807F65
:1018B00001D3012010BD4FF0E02460610F216017BB
:1018C00000F0D3FC0020A06107202061002010BDA3
:1018D00070B590F83C20012A26D0012480F83C40C5
:1018E000022280F83D2003685A689D6822F0700645
:1018F0000A6832435A600D4B02689A4208D0B2F12E
:10190000804F05D00A4B9A4202D00A4B9A4204D12A
:10191000496825F080031943916080F83D4000211B
:1019200080F83C10084670BD022070BD002C0140BC
:10193000000400400008004010B5040003D094F8F3
:101940003D0010B107E0012010BD002084F83C00EC
:10195000204600F01FF8022084F83D00211D206879
:1019600000F058FB012084F8460084F83E0084F81B
:101970003F0084F8400084F8410084F8420084F875
:10198000430084F8440084F8450084F83D000020BA
:1019900010BD000008B500680649884208D1064815
:1019A000816941F400618161806900F40060009008
:1019B00008BD0000002C01400010024070B5044634
:1019C00090F83C00012817D0012584F83C500220F3
:1019D00084F83D002068826822F0770222F47F427A
:1019E00082600868502830D00DDC20284DD005DCFE
:1019F00098B310283BD148E0022070BD302844D075
:101A0000402834D139E0602828D0702806D0B0F5BD
:101A1000805F2CD0B0F5005F29D10AE0CB68D1E916
:101A20000121206800F02CFB2068816841F07701DB
:101A300009E0CB68D1E90121206800F021FB206892
:101A4000816841F48041816011E0CA68496820687A
:101A500000F028FB5021206807E016E0CA684968BA
:101A6000206800F030FB6021206800F013FB84F850
:101A70003D50002084F83C0070BDCA684968206869
:101A800000F010FB40212068EFE722680146104675
:101A9000EBE7704770B5026804461068D168536977
:101AA00010F00F0F52D003F0010501F490762E4391
:101AB0005FD0C20705D0CA0503D5E26B42F0010230
:101AC000E263420705D5DA0703D0E26B42F0020277
:101AD000E263820705D5DA0703D0E26B42F0040225
:101AE000E263020707D501F020022A4303D0E26B2C
:101AF00042F00802E263E26B002A33D0800604D58C
:101B0000880602D5204600F006FB20684069E16B9C
:101B1000C0F38010090700D428B3204600F0EDFA86
:101B20002068416949061AD5416921F040014161A7
:101B3000606BA0B12D494163606BFFF759FA002833
:101B400010D0606B416BBDE870400847830610D52C
:101B50008B060ED52046BDE8704000F0DCBA20466A
:101B6000FFF797FF70BD2046FFF793FF0020E0636B
:101B700070BD03062BD50B0629D594F83900212812
:101B8000F6D1A068B0F5805F01D12069B0B1206ABC
:101B9000411C2162216800784860E08C401E0004EE
:101BA000000CE084E4D12068C16821F08001C160AC
:101BB0002068C16841F04001C16070BD206A0088A2
:101BC000C0F308005060206A801C2062E5E74006F0
:101BD000F3D54806F1D5D168204621F04001D16007
:101BE000202184F8391000F011F970BDEB200008B5
:101BF00070B5040004D094F83900002510B106E057
:101C0000012070BD84F83850204600F023F82420CD
:101C100084F839002068C16821F40051C160204671
:101C200000F0C0FA2068016921F490410161206848
:101C3000416921F02A0141612068C16841F40051E5
:101C4000C160E563202084F8390084F83A00002060
:101C500070BD000030B585B000240094019402945A
:101C600003940068184988422CD11848816941F4CE
:101C700080418161816901F480410491816941F071
:101C8000040181618069124D00F0040004904FF45A
:101C900000700090022001900320039069462846BE
:101CA000FFF7F2F92815CDE90004694628460294A9
:101CB000FFF7EAF9002211462520FFF747FB252010
:101CC000FFF736FB05B030BD003801400010024080
:101CD0000008014090F83A30202B22D1F9B1F2B13E
:101CE00090F83830012B1CD081628285C28500219A
:101CF000C163222280F83A2080F838100168CA684F
:101D000042F48072CA6001684A6942F001024A6185
:101D10000068C16841F02001C160002070470120C7
:101D200070470220704700002DE9FC4131490068EE
:101D3000096888425BD12F49182274312D48FFF77A
:101D4000C9FF2D49081F031FCDE9000129481A1FAB
:101D50002AA17430FEF740FA042848D126480C38EE
:101D60000268642192FBF1F2D3B20268002A026891
:101D700092FBF1F401FB142200DA52424468D2B221
:101D800094FBF1F4E5B24468002C446894FBF1F64E
:101D900001FB164400DA64428668E4B296FBF1F671
:101DA0008768F6B28068002F90FBF1F701FB1700FF
:101DB00000DA4042C1B20F480627403007610027D1
:101DC0008760C760012707600B48183003704270B6
:101DD0008570C4700671417102B00649BDE8F041DA
:101DE000031F02464031A1F1B000FEF78CBDBDE8F3
:101DF000FC810000B40000200C0000202564612557
:101E00006462256463256464000000007047FEE797
:101E100010B516488AB01449016012210024C0E9A7
:101E200001144FF48031C0E90341446104764476E3
:101E30008476C47604774477FEF7B4FF08B172B6AF
:101E4000FEE701200A49CDE904040890CDE9001419
:101E5000CDE90214CDE90640694604480994FEF72D
:101E6000B7FD0AB010BD000000640040440000202F
:101E7000E0FF01002DE9F04385B000242C480094D8
:101E8000019402940394816941F010018161816998
:101E900001F010010491816941F0200181618169A3
:101EA00001F020010491816941F00401816181699F
:101EB00001F004010491816941F0080181618069A8
:101EC0001C4F00F008004FF40055049000222946F2
:101ED0003846FFF7C9F9DFF8608000220821404644
:101EE000FFF7C2F9DFF85490002230214846FFF78F
:101EF000BBF90095022601250396CDE901546946F8
:101F00003846FFF7C1F80820CDE90005CDE90246C3
:101F100069464046FFF7B8F83020CDE90005CDE925
:101F2000024669464846FFF7AFF805B0BDE8F083C2
:101F3000001002400010014000080140000C014068
:101F400010B586B0002417480094019402940394BD
:101F500004941349059401604721C0E901144FF628
:101F6000FF71C0E9031444618461FFF7E5FC08B127
:101F700072B6FEE74FF48050009069460948FFF7BB
:101F80001DFD08B172B6FEE7049404A90548059446
:101F9000FFF79EFC002801D072B6FEE706B010BD28
:101FA000002C01406C000020FEE7FEE77047704700
:101FB000FFF766B930B58FB028216846FEF7D0F933
:101FC00014210AA8FEF7CCF901210804CDE900107C
:101FD0000024029402250491CDE907504FF4E0104B
:101FE00009906846FFF7D0FA08B172B6FEE70F20F5
:101FF000CDE90A054FF48060CDE90C4002210AA822
:102000000E94FFF7D5F9002801D072B6FEE70FB0A5
:1020100030BD7047F0B50268164B174C174D4FF0A6
:102020008047984205D0B84203D0A04201D0A842D0
:1020300003D122F070064A683243984205D0B84274
:1020400003D0A04201D0A84203D122F44074CA6850
:1020500022434C6922F08002224302608A68C262F5
:102060000A688262984201D10969016301214161D4
:10207000F0BD0000002C01400004004000080040BA
:1020800010B5846842EA032224F47F440A432243C1
:10209000826010BD826822F070020A4342F007019C
:1020A0008160704710B5036A046A24F00104046279
:1020B000846924F0F00444EA021423F00A020A437B
:1020C0008461026210BD10B5036A23F0100303623D
:1020D0008369046A23F4704343EA023224F0A003C4
:1020E00043EA01118261016210BD10B5406A00210E
:1020F000C185C184FFF7CDFC10BD0168CA6822F418
:102100009072CA6001684A6922F001024A61202186
:1021100080F83A10704710B590F83A10222901D093
:10212000022010BD82684FF480539A4201D10169A8
:1021300021B1816A9A421BD04AB10AE00268816AE1
:102140005268C2F308020A80816A891C08E00269A9
:1021500072B10268526802F07F020A70816A491CFB
:102160008162C18D491E0904090CC18503D016E0A6
:1021700002685268F1E70168CA6822F02002CA606A
:102180000168CA6822F48072CA6001684A6922F054
:1021900001024A61202180F83A10FFF7C5FD0020B6
:1021A00010BD000070B5044600680169E26821F4C2
:1021B0004051114301612169A068084361690843E6
:1021C0002168CA6841F20C639A430243CA602068DE
:1021D0004169A26921F44071114341611E4920689F
:1021E000884202D1FFF78AF901E0FFF777F900EBA7
:1021F000C00101EB0012606864218000B2FBF0F3C3
:10220000B3FBF1F36FF018067343B2FBF0F5B2FBCA
:10221000F0F605EB8305322303EB0515B5FBF1F56D
:10222000B6FBF1F605F0F00505EB0615B2FBF0F68E
:10223000B2FBF0F0B0FBF1F06FF01802504306EB88
:10224000800003EB0010B0FBF1F0216800F00F00FC
:102250002844886070BD0000003801400148FFF745
:1022600019BC0000B4000020FEE70907090E002891
:1022700004DB00F1E02080F80014704700F00F004C
:1022800000F1E02080F8141D70470000FFF700F80F
:10229000FFF790FEFFF7EEFDFFF7BAFDFFF750FEE8
:1022A000124811490C2201604FF4E13141600021D4
:1022B0008160C160C0E904128161C161FFF798FCCF
:1022C00008B172B6FEE709487038FEF75DFE0748B0
:1022D00010217038FEF705FB0449182274310348B9
:1022E000FFF7F8FCFEE7000000380140B4000020D2
:1022F00010B500290AD00878002807D0054878448E
:10230000FEF7A0FA002801D0002010BD0248784452
:1023100010BD0000560000004E000000000000004C
:102320000000000001020304060708090000000085
:10233000010203046424000800000020440000009F
:1023400028010008A8240008440000205C070000C1
:10235000440100081001000043000000F8FFFFFFE7
:1023600000404040404040404040414141414140A8
:10237000404040404040404040404040404040405D
:1023800040050202020202020202020202020202EC
:1023900002202020202020202020200202020202F1
:1023A0000202909090909090101010101010101049
:1023B0001010101010101010101010100202020255
:1023C0000202888888888888080808080808080899
:1023D0000808080808080808080808080202020295
:1023E00040000000000000000000000000000000AD
:1023F00000000000000000000000000000000000DD
:1024000000000000000000000000000000000000CC
:1024100000000000000000000000000000000000BC
:1024200000000000000000000000000000000000AC
:10243000000000000000000000000000000000009C
:10244000000000000000000000000000000000008C
:10245000000000000000000000000000000000007C
:10246000000000000000000000000000000000006C
:10247000000000000000000000000000000000005C
:10248000000000000000000000000000000000004C
:10249000000000000000000001000000100000002B
:0824A000000000000024F4001C
:04000005080000ED02
:00000001FF
